:1000000015C1000043C1000041C100003FC1000014
:100010003DC100003BC1000039C1000037C10000F4
:1000200035C1000033C1000031C100002FC1000004
:100030002DC100002BC1000029C1000027C1000014
:1000400025C1000023C1000021C100001FC1000024
:100050001DC100001BC1000019C100000BC300003E
:1000600015C10000A4C3000079C300000FC1000047
:100070000DC100000BC1000009C1000007C1000054
:1000800005C1000003C1000001C10000FFC0000065
:10009000FDC00000FBC00000F9C00000F7C0000078
:1000A000F5C00000F3C00000F1C00000EFC0000088
:1000B000EDC00000EBC00000E9C00000E7C0000098
:1000C000E5C00000E3C00000E1C00000DFC00000A8
:1000D000DDC00000DBC00000D9C00000D7C00000B8
:1000E000D5C00000C804CB04BA04BE04C404020591
:1000F000CF04D304D904DD04E104E704EB04EF04E6
:100100000205F504F904FD04000021002400270085
:100110002A002D0030003300010100000401070116
:100120000A0100002200250028002B002E003100CB
:10013000340002010000050108010B01000020004D
:100140002300260029002C002F00320000010000AF
:10015000030106010901050505050705080808084A
:10016000020202020A0A080804040404010101014F
:10017000010101010303030303030303040707074A
:100180000C0C0C0C0C0C0C0C0202020206060606EF
:10019000060606060B0B0B0B0B0B0B0B01021020BC
:1001A00020080810204010204080020102010804AD
:1001B0000201010204081020408080402010080441
:1001C000020180040201804020100804020108049A
:1001D00002010102040810204080010204081020DE
:1001E000408000000A0B02090C0D0E0807030401F1
:1001F00000000000000000000000000000000000FF
:1002000000000000000000000000000000001211CB
:1002100010000000000000000000000000000000CE
:1002200000000000000000007A0D700D11241FBEB8
:10023000CFEFD1E2DEBFCDBF00E00CBF25E0A2EEE4
:10024000B3E001C01D92A332B207E1F713E0A0E0D2
:10025000B2E0E4E6F5E200E00BBF02C007900D92C9
:10026000A23EB107D9F711E0C5E1D1E000E006C038
:1002700021970109802FFE010E947B10C431D10714
:1002800080E00807A9F798D70C94A112B9CE089579
:10029000DC01ED91FC910190F081E02D1994CF9259
:1002A000DF92EF92FF920F931F93CF93DF936C0136
:1002B0007A018B01C0E0D0E0CE15DF0581F0D801D6
:1002C0006D918D01D601ED91FC910190F081E02DB1
:1002D000C6011995892B11F02196EECF7E01C70139
:1002E000DF91CF911F910F91FF90EF90DF90CF9012
:1002F0000895FC01538D448D252F30E0842F90E02C
:10030000821B930B541710F0CF9608950197089510
:10031000FC01918D828D981761F0828DDF01A80F0D
:10032000B11D5D968C91928D9F5F9F73928F90E02F
:1003300008958FEF9FEF0895FC01918D828D98179E
:1003400031F0828DE80FF11D858D90E008958FEFDB
:100350009FEF0895FC01918D228D892F90E0805CA4
:100360009F4F821B91098F73992708958FEE93E019
:10037000F1DF21E0892B09F420E0822F0895FC01B0
:10038000848DDF01A80FB11DA35ABF4F2C91848D1E
:1003900090E001968F739927848FA689B7892C9353
:1003A000A089B1898C91837080648C93938D848DA6
:1003B000981306C00288F389E02D80818F7D8083A9
:1003C0000895EF92FF920F931F93CF93DF93EC0169
:1003D00081E0888F9B8D8C8D981305C0E889F98901
:1003E000808185FD25C0F62E0B8D10E00F5F1F4F1D
:1003F0000F731127E02E8C8DE8120BC00FB607FC8F
:10040000FACFE889F989808185FFF5CFCE01B7DF82
:10041000F2CF8B8DFE01E80FF11DE35AFF4FF08202
:100420009FB7F8940B8FEA89FB89808180620AC0AC
:100430009FB7F894EE89FF896083E889F989808104
:100440008370806480839FBF81E090E0DF91CF91D3
:100450001F910F91FF90EF900895CF93DF93EC01E0
:10046000888D8823C1F0EA89FB89808185FD05C0DC
:10047000A889B9898C9186FD0EC00FB607FCF5CF0F
:10048000808185FFF2CFA889B9898C9185FFEDCF56
:10049000CE0175DFE8CFDF91CF91089580E090E045
:1004A000892B19F063DF811125C080E090E0892B52
:1004B00041F080E090E0892B21F00E940000811142
:1004C0001CC080E090E0892B41F080E090E0892B17
:1004D00021F00E940000811113C080E090E0892B80
:1004E000A1F080E090E0892B81F00E940000811152
:1004F0000AC008950E940000D8CF0E940000E1CFFA
:100500000E940000EACF0C940000089580E090E083
:100510000895862F03C3862F642F28C3CF93DF93BC
:10052000EC0160E08E8122D361E08E811FD360E018
:100530008E811CD38BE891E00197F1F7DF91CF9189
:100540000895CF92DF92EF92FF92CF93AFD2BC018A
:10055000990F880B990B0E94450E2BE93DE34AEF5A
:100560005EE30E94A40E6B017C016093E203709332
:10057000E3038093E4039093E50320E030E040E25E
:1005800052E40E945110181644F4CFE161E08C2F20
:10059000EDD2CF5FC332D1F711C020E030E04CE0A4
:1005A00052E4C701B6010E943F0E87FF07C0CFE1AA
:1005B00060E08C2FDBD2CF5FC432D1F7CF91FF90B8
:1005C000EF90DF90CF900895862F642FFDC20E9498
:1005D00084120F931F93CF93DF93EC01888199814D
:1005E000009729F02A813B812617370788F48B0171
:1005F0006F5F7F4F0E94A411009761F099838883F9
:100600001B830A832C813D81232B11F4FC01108272
:1006100081E001C080E0DF91CF911F910F9108959B
:10062000EF92FF920F931F93CF93DF93EC017B0127
:100630008A01BA01CEDF2881398181110DC02115CF
:10064000310519F0C9010E941B11198218821D82FF
:100650001C821B821A8206C01D830C83B701C9014C
:100660000E949A12CE01DF91CF911F910F91FF90BE
:10067000EF9008951F920F920FB60F9211242F93AF
:100680003F938F939F93AF93BF938091E703909194
:10069000E803A091E903B091EA033091E60323E077
:1006A000230F2D3720F40196A11DB11D05C026E8AA
:1006B000230F0296A11DB11D2093E6038093E7034B
:1006C0009093E803A093E903B093EA038091EB03CE
:1006D0009091EC03A091ED03B091EE030196A11D62
:1006E000B11D8093EB039093EC03A093ED03B093C3
:1006F000EE03BF91AF919F918F913F912F910F90FA
:100700000FBE0F901F901895FC011182108213826A
:100710001282158214826115710549F0FB01019066
:100720000020E9F73197AF01461B570B79CF0895A9
:100730006115710579F0FB0101900020E9F731970F
:10074000AF01461B570BDC01ED91FC910280F38158
:10075000E02D199480E090E00895EACF1F920F9267
:100760000FB60F9211240BB60F922F933F934F9316
:100770005F936F937F938F939F93AF93BF93EF9309
:10078000FF938FEE93E0FBDDFF91EF91BF91AF916F
:100790009F918F917F916F915F914F913F912F9199
:1007A0000F900BBE0F900FBE0F901F9018951F92C9
:1007B0000F920FB60F9211240BB60F922F938F93B7
:1007C0009F93EF93FF93E091FF03F09100048081EA
:1007D000E0910504F091060482FD12C090818091A1
:1007E00008048F5F8F7320910904821751F0E09104
:1007F0000804F0E0E151FC4F958F8093080401C09C
:100800008081FF91EF919F918F912F910F900BBE5F
:100810000F900FBE0F901F901895CF92DF92EF921E
:10082000FF920F931F93CF93DF936C017C0187E0BE
:10083000E80EF11CC0E0D0E0062F10E0B8010C2E4D
:1008400002C0759567950A94E2F76170F70181918E
:100850007F018CD12196C430D10581F7C601DF918B
:10086000CF911F910F91FF90EF90DF90CF9056CED8
:10087000CF92DF92EF92FF920F931F93CF93DF936C
:10088000EC01F62E642F8C8171D18D818F3F11F098
:1008900060E06CD18F850F2D10E084FF23C06E01C6
:1008A00087E0C80ED11CE12CF12CB8010E2C02C03F
:1008B000759567950A94E2F76170F60181916F0171
:1008C00055D1FFEFEF1AFF0A88E0E816F10469F747
:1008D000CE01DF91CF911F910F91FF90EF90DF90AC
:1008E000CF901CCEB80184E0759567958A95E1F7A5
:1008F000CE0193DF6F2DCE01DF91CF911F910F912C
:10090000FF90EF90DF90CF9088CF41E0B1DF81E0A2
:1009100090E0089596E0899FD0011124A457BB4F21
:1009200090967C936E935F9791E091969C939197AC
:100930009091F804E091F904F091FA04992339F0C8
:10094000309751F0811108C08091A80404C03097FD
:1009500019F05C968C911994089590E0FC01319700
:10096000E231F10508F04EC08827EE58FF4F8F4F57
:100970000C947B10809180008F7703C08091800061
:100980008F7D80938000089580918000877FF9CFCC
:1009900084B58F7702C084B58F7D84BD0895809122
:1009A000B0008F7703C08091B0008F7D8093B0003E
:1009B0000895809190008F7707C0809190008F7D7F
:1009C00003C080919000877F80939000089580916C
:1009D000A0008F7707C08091A0008F7D03C0809119
:1009E000A000877F8093A0000895809120018F77D9
:1009F00007C0809120018F7D03C080912001877FF7
:100A00008093200108953FB7F8948091EB03909173
:100A1000EC03A091ED03B091EE0326B5A89B05C0B1
:100A20002F3F19F00196A11DB11D3FBFBA2FA92F6D
:100A3000982F8827820F911DA11DB11DBC01CD01EA
:100A400042E0660F771F881F991F4A95D1F70895D6
:100A500040E0682F8BEF94E00BCF81E0F9DF8BE370
:100A60009FE10197F1F70895643008F063E09091F9
:100A70000E05691710F06FEF690FE62FF0E0E550F3
:100A8000FB4F9489890F8068E3CFCF93DF93BC013C
:100A90008FEE93E04DDEEC0165E672E08FEE93E0C1
:100AA00047DE8C0F9D1FDF91CF91089580917B00D1
:100AB000877F80937B0081E480937C0080917A0023
:100AC000806480937A0080917A0086FDFCCF8091CB
:100AD00078002091790090E0922B0895FC0180919C
:100AE000170590911805892B21F421E0309749F4DE
:100AF00013C08091130590911405309731F421E0D3
:100B0000FC018081882341F006C0BF010E94911240
:100B100021E0892B09F020E0822F0895CF93DF9305
:100B2000282F30E0F901EE51FE4F8491F901E4568F
:100B3000FE4FD491F901EA5AFE4FC491CC2389F0BB
:100B400081110BDFEC2FF0E0EE0FFF1FE45CFE4F96
:100B5000A591B491EC91ED2381E090E021F480E047
:100B600002C080E090E0DF91CF9108951F93CF9372
:100B7000DF93282F30E0F901EE51FE4F8491F90107
:100B8000E456FE4FD491F901EA5AFE4FC491CC23AA
:100B9000B9F0162F8111E1DEEC2FF0E0EE0FFF1F10
:100BA000EE5DFE4FA591B4919FB7F894111104C06A
:100BB0008C91D095D82302C0EC91DE2BDC939FBFA3
:100BC000DF91CF911F910895CF93DF9390E0FC01C7
:100BD000E456FE4F2491FC01EA5AFE4F849188238B
:100BE00061F190E0880F991FFC01E85FFE4FC5910D
:100BF000D491FC01EE5DFE4FA591B491611109C045
:100C00009FB7F8948881209582238883EC912E23C6
:100C10000BC0623061F49FB7F8948881322F309511
:100C200083238883EC912E2B2C939FBF06C08FB714
:100C3000F894E8812E2B28838FBFDF91CF91089500
:100C4000CF93DF93823028F090910A0598609093BB
:100C50000A0580930E0510920F0580E4809310051D
:100C600080E18093110580E58093120561E0809119
:100C7000FF04AADF809100058F3F11F061E0A4DF3F
:100C800061E080910105A0DFCBEFD4E09E012B5FF6
:100C9000344080910A0584FD03C084E090E002C0E6
:100CA00088E090E021962817390724F461E08E81CE
:100CB0008BDFECCF8BE39DE00197F1F760E0809153
:100CC000FF0454DF60E08091010550DF8091000552
:100CD0008F3F11F060E04ADF80910A0584FD1CC05F
:100CE00063E08BEF94E099DDCBE4D6E4CE0101978D
:100CF000F1F763E08BEF94E090DD2197F1F763E08B
:100D00008BEF94E08ADD83E592E00197F1F762E0F2
:100D10008BEF94E082DD12C080629ADE8BE496E471
:100D20000197F1F780910A05806292DE83E592E0F7
:100D30000197F1F780910A0580628ADE80910A05A9
:100D4000806286DE84E080930B058CE081DE85DEA8
:100D500082E080930C0586E0DF91CF9179CE8F926F
:100D60009F92AF92BF92CF92DF92EF92FF926B0170
:100D70007C0149DE4B015C01C114D104E104F104A2
:100D8000E9F041DEDC01CB0188199909AA09BB0908
:100D9000883E9340A105B10578F321E0C21AD1083D
:100DA000E108F10888EE880E83E0981EA11CB11CB2
:100DB000C114D104E104F10421F7DECFFF90EF90DC
:100DC000DF90CF90BF90AF909F908F9008952FB7F6
:100DD000F8946091E7037091E8038091E9039091A2
:100DE000EA032FBF08950F931F93CF93DF93C82F6C
:100DF000D62F86E0C89FF0011124E457FB4F11A2C3
:100E0000878D90A181309105C9F040F08230910525
:100E100091F10397D1F560E070E031C06623A9F14C
:100E200061E070E08C2F76DDD2DF6093E404709394
:100E3000E5048093E6049093E70427C0C8DF00919F
:100E4000E4041091E5042091E6043091E704AB013D
:100E5000BC01401B510B620B730B8091F604909107
:100E6000F704A0E0B0E084179507A607B70718F4C9
:100E700062E070E004C0D11108C063E070E08C2F24
:100E8000DF91CF911F910F9145CDDF91CF911F91B0
:100E90000F9108950F931F939ADF6093F703709358
:100EA000F8038093F9039093FA038FEE93E030DA1E
:100EB00097FF1EC08CDF0091F7031091F80320917B
:100EC000F9033091FA03DC01CB01801B910BA20BDB
:100ED000B30B0091F3031091F4032091F5033091CB
:100EE000F60380179107A207B307F8F28FEF9FEF81
:100EF0001F910F910895EF92FF920F931F93CF933D
:100F000000E310E0C4E080E8E82EF12CC7010C2ECD
:100F100002C0959587950A94E2F795B1982B95B9FB
:100F200095B18051892385B9CF5F64E670E080E098
:100F300090E015DFC83009F4C4E00150110931F721
:100F4000CF911F910F91FF90EF900895EF92FF9234
:100F50000F931F93CF9300E310E0C0E0EE24E394DF
:100F6000F12CC7010C2E01C0880F0A94EAF795B145
:100F7000982B95B995B18051892385B9CF5F62E3EC
:100F800070E080E090E0EBDEC43009F4C0E0015096
:100F9000110939F7CF911F910F91FF90EF900895AC
:100FA0002F923F924F925F926F927F928F929F9279
:100FB000AF92BF92CF92DF92EF92FF920F931F9367
:100FC000CF93DF93CDB7DEB7A2970FB6F894DEBF0D
:100FD0000FBECDBF6C014A015B01F22E9A01AB013D
:100FE000C501B4010E945510882319F061E472E034
:100FF00026C024013501E89477F82FEF3FEF4FE743
:101000005FE7C301B2010E94551081110CC02FEFA0
:101010003FEF4FE75FE7C301B20131D618161CF46A
:1010200065E472E00CC02FEF3FEF4FE75FE4C501CE
:10103000B4010E94511018162CF469E472E0C60144
:1010400077DBA1C02FEF3FEF4FE75FECC501B401A5
:1010500016D687FDF2CF20E030E0A901C501B4012A
:101060000ED687FF09C06DE2C60112D91C01B7FA7E
:10107000B094B7F8B09402C0212C312C10E060E09D
:1010800070E080E09FE3F11639F020E030E040E2CC
:1010900051E473D71F5FF7CFA50194010AD74B0125
:1010A0005C01D3D7562E672E782EE92E19A2262F53
:1010B000372F482F592F8E010F5D1F4F0AA3412E46
:1010C000CA01B9012AE030E040E050E0F2D7605DAB
:1010D000F80162938F01211531054105510581F712
:1010E000BF01C60125DB8101080F191FFF2009F48C
:1010F00049C0652D762D872D9E2DC5D59B01AC0150
:10110000C501B401D5D64B015C016EE2C601C0D861
:10111000080F191F20E030E040E251E4C501B4019E
:1011200013D64B015C0191D79B0140E050E019A21E
:101130002AA0342C562E632E742EE52ECA01B90136
:101140002AE030E040E050E0B4D7605DF101629306
:101150001F01211531054105510581F7BF01C60168
:10116000E7DA080F191F652D762D872D9E2D8BD55B
:101170009B01AC01C501B4019BD64B015C01FA9403
:10118000F110C8CFC801A2960FB6F894DEBF0FBE0B
:10119000CDBFDF91CF911F910F91FF90EF90DF9026
:1011A000CF90BF90AF909F908F907F906F905F9007
:1011B0004F903F902F900895CF93DF93CDB7DEB738
:1011C00028970FB6F894DEBF0FBECDBF789484B5D4
:1011D000826084BD84B5816084BD85B5826085BD33
:1011E00085B5816085BD80916E00816080936E00C1
:1011F00010928100809181008260809381008091B3
:101200008100816080938100809180008160809363
:1012100080008091B10084608093B1008091B00023
:1012200081608093B00080919100826080939100F2
:101230008091910081608093910080919000816005
:10124000809390008091A10082608093A1008091A2
:10125000A10081608093A1008091A00081608093B3
:10126000A000809121018260809321018091210161
:101270008160809321018091200181608093200111
:1012800080917A00846080937A0080917A008260F5
:1012900080937A0080917A00816080937A008091B7
:1012A0007A00806880937A001092C10082E0C8DCE6
:1012B0006DE472E08BEF94E050DAE091FF03F0917F
:1012C000000482E08083E091FB03F091FC03108234
:1012D000E091FD03F091FE038FEC808310920704F0
:1012E000E0910304F091040486E08083E09101041E
:1012F000F0910204808180618083E0910104F0918B
:101300000204808188608083E0910104F0910204EE
:10131000808180688083E0910104F09102048081E3
:101320008F7D808388E592E0B0DB12E061E0812F61
:101330004BDC1F5F1633D1F760E08EE145DC60E0E7
:1013400087E342DC12E060E0812F10DC1F5F163380
:10135000D1F7212C312C210123948EE1DFDB892B65
:1013600009F0AAC165E672E08FEE93E0E1D988E664
:1013700092E08BDB60E080E077DB6FDB62E772E0BE
:101380008BEF94E0EAD968EE73E080E090E0E7DC70
:1013900064DB6FE772E08BEF94E0DFD98CE892E0DA
:1013A00074DB61E081E060DB40E050E067E672E022
:1013B00083E195E035D948ECA42E44E0B42E21E039
:1013C0002093F80404DD0091E8041091E9042091D1
:1013D000EA043091EB04AB01BC01401B510B620BE2
:1013E000730B8091F4049091F504A0E0B0E08417B1
:1013F0009507A607B70718F710E08091F2041817B1
:1014000010F0712C3EC0E091EE04F091EF04E10F7A
:10141000F11D62E08081D8DB1F5FEFCF062D10E069
:10142000E091EE04F091EF04E00FF11F808176DB94
:101430000C5F1F4F000F111FF801E457FB4F892B62
:1014400009F047C0808191818829992991838083FF
:1014500063948091F204681608F3E091F004F0912F
:10146000F104EE0DFF1D61E0808180DB8091F004CE
:101470009091F104FC01EE0DFF1D60E08081A4DB82
:1014800073948091F304781648F5E72CF12CE091E1
:10149000F004F091F104EE0DFF1D61E0808194DB1A
:1014A000E091F004F091F104EE0DFF1D60E0808109
:1014B0005DDBD201C101072C04C0880F991FAA1F50
:1014C000BB1F0A94D2F74C016C01C094D094612CDC
:1014D000C0CF808191818C219D21B8CF0CE814E090
:1014E000F801878D90A1892B31F4148E8FEF9FEF37
:1014F000968F858F11A23696AE16BF0691F7D12C26
:101500008091F204D81670F5C12CED2CF12CC70196
:10151000880F991FFC01EC56FB4F7F012091F304CB
:10152000C216F0F4F701408151810C2C02C056958F
:1015300047950A94E2F7642F6170D29E90011124BE
:101540002C0D311DECE8F4E080E0A58DB68D2A1756
:101550003B0709F495C28F5F36968A30B1F773C2A4
:10156000D394CECFF12CF80181A1882311F0FF2470
:10157000F3940A5F1F4FA016B106A9F728DC609309
:10158000E8047093E9048093EA049093EB04FF204D
:1015900009F415CF8091AD04882309F410CF809110
:1015A000AB049091AC04019709F009CF1091A80405
:1015B000112309F404CF133299F5209117053091C6
:1015C000180580911D0590911E052817390709F00F
:1015D00060C2809113059091140560911905709176
:1015E0001A05009719F061157105A9F461157105C7
:1015F00051F0232B09F441C0FB01808190E09195CB
:101600008195910909C00097C1F1232BB1F1FC012B
:10161000808190E001C085D7892B09F03AC22DC0A6
:101620006AE28BEF94E00E9448016AE28FEE93E059
:101630000E94480119831A8200911705109118051C
:101640000F5F1F4FB80183E195E00E94E9028823F4
:1016500009F4B5CE2091130530911405809117053A
:1016600090911805BE016F5F7F4F820F931F62D765
:101670001093180500931705A2CE61E08BE276DA8D
:1016800060E08CE273DA65E672E08FEE93E050D8AA
:1016900088E992E0FAD9E1D965EA72E08BEF94E04B
:1016A0005CD868EE73E080E090E059DB60E08BE2AC
:1016B0005DDA60E08CE25ADA8FEE93E00E94AA01D4
:1016C000892B09F47CC18FEE93E00E94AA01892B3B
:1016D00009F447C067E672E0CE01019615D8DADB5F
:1016E00097FD1AC08F8318860D811E810F5F1F4FD3
:1016F000B801CE0101960E94E902882381F3298175
:101700003A818D819E81BE01695F7F4F820F931F59
:1017100011D71E830D83E3CF80911305909114059B
:10172000009739F069817A816115710509F0C6C1A8
:1017300082D589819A8190931405809313058B81BA
:101740009C8190931605809315058D819E819093C1
:101750001805809317051A82198289819A816BD5A1
:10176000B2CF85EB92E0BAD9882331F061E082E014
:10177000FDD98AEB92E022C180EC92E0AFD98823B8
:1017800011F061E023C085EC92E0A8D9882311F024
:1017900061E024C08AEC92E0A1D9882311F061E0D5
:1017A00025C08FEC92E09AD9882311F061E026C021
:1017B00084ED92E093D9882319F060E082E0F5C0CF
:1017C0008CED92E08BD9882319F060E083E0EDC0C6
:1017D00084EE92E083D9882319F060E084E0E5C0CC
:1017E0008CEE92E07BD9882319F060E085E0DDC0C3
:1017F00084EF92E073D9882319F060E086E0D5C0C9
:101800008CEF92E06BD9882311F061E023C081E076
:1018100093E064D9882311F061E024C086E093E06E
:101820005DD9882311F061E025C08BE093E056D9A3
:10183000882311F061E026C080E193E04FD988232E
:1018400019F00E94A102BBC088E193E047D9882328
:1018500019F060E08FE1A9C080E293E03FD98823CE
:1018600019F060E080E2A1C088E293E037D98823D4
:1018700019F060E081E299C080E393E02FD98823DA
:1018800019F060E082E291C088E393E027D98823D1
:1018900009F44AC00BD9BC01990F880B990BF5D1FB
:1018A0002BE93DE34AEF5EE34FD26093E20370938E
:1018B000E3038093E4039093E503CFD861E081E0F4
:1018C000D3D86DE373E08BEF94E00E94AD034091B9
:1018D000E2035091E3036091E4037091E50322E099
:1018E0008BEF94E05DDB64E473E08BEF94E00E94A7
:1018F000AD0367E473E08FEE93E00E94AD03409187
:10190000E2035091E3036091E4037091E50322E068
:101910008FEE93E045DB84E493E0B7D862E370E0B8
:1019200080E090E01CDA4BC086E593E0D7D88823AE
:1019300029F061E081E31AD9DEDA1DC080E693E088
:10194000CDD8882329F061E080E310D9D4DA1FC014
:101950008AE693E0C3D8882329F061E08FE206D9B4
:10196000CADA21C084E793E0B9D8882339F061E06E
:1019700081E3FCD8EBDA60E081E317C08FE793E006
:10198000ADD8882339F061E080E3F0D8DFDA60E099
:1019900080E30BC08AE893E0A1D8882341F061E09E
:1019A0008FE2E4D8D3DA60E08FE2E0D808C087E6BF
:1019B00092E094D8811103C085E993E066D840E0B5
:1019C00050E067E672E083E195E00E9410038DE24B
:1019D000A5D8892BC1F061E08CE2C8D83ED868EC6C
:1019E00070E080E090E0BBD961E080E03DD862EA41
:1019F00073E08BEF94E00E94AD0368EC70E080E050
:101A000090E0ADD903C060E08CE2B0D88EE286D819
:101A1000892BA1F022D868EC70E080E090E09FD99B
:101A200061E080E021D862EB73E08BEF94E00E94EC
:101A3000AD0368EC70E080E090E091D90E94A102D3
:101A40000E944E028ACC40FF1CC0ECE8F4E080E02B
:101A500090E0448D411117C0E091EC04F091ED0449
:101A6000E20FF31F408156E0589FF001599FF00D9F
:101A70001124E457FB4F448F368F258F10A2178E09
:101A8000B2D9C3944BCD019636968A30910509F7A9
:101A9000F8CF61E08CE26AD860E08BE267D865E657
:101AA00072E08FEE93E00E94980384EC93E00E9432
:101AB00045050E942D056FEC73E0F0CD40911505B2
:101AC000509116052D813E814217530708F430CE00
:101AD00031D58D819E8190931805809317053DCE59
:101AE0008091130590911405A6D3809119059091CA
:101AF0001A05A1C31092F2031092F10388EE93E04D
:101B0000A0E0B0E08093F3039093F403A093F50377
:101B1000B093F6038DE192E09093F0038093EF038E
:101B200085EC90E09093FC038093FB0384EC90E0C1
:101B30009093FE038093FD0380EC90E0909300046B
:101B40008093FF0381EC90E0909302048093010462
:101B500082EC90E0909304048093030486EC90E080
:101B600090930604809305041092080410920904CF
:101B700010920A0410920B046DED73E089E195E078
:101B80000E94840367E672E083E195E00E9484038B
:101B90001092FE041092FD0489E392E09093FC04FD
:101BA0008093FB048DE08093FF048FEF809300050A
:101BB0008CE0809301058BE0809302058AE080939E
:101BC000030589E08093040588E080930505109261
:101BD000060510920705109208051092090510924B
:101BE0000A0581E02DD810928E0410929204109272
:101BF0009104109293048FE292E090938D0480936D
:101C00008C04ECE8F4E0148E10A2178E11A2369624
:101C100084E0E83CF807B9F783E092E09093EF04A2
:101C20008093EE0480E092E09093F1048093F004BE
:101C300084E08093F20483E08093F30487E092E0F1
:101C40009093ED048093EC048AE090E09093F50487
:101C50008093F40484EF91E09093F7048093F6046A
:101C60001092FA041092F9041092E8041092E90418
:101C70001092EA041092EB041092F804089540D0F8
:101C800008F481E00895E89409C097FB3EF490952C
:101C90008095709561957F4F8F4F9F4F9923A9F045
:101CA000F92F96E9BB279395F695879577956795D4
:101CB000B795F111F8CFFAF4BB0F11F460FF1BC018
:101CC0006F5F7F4F8F4F9F4F16C0882311F096E9AB
:101CD00011C0772321F09EE8872F762F05C0662359
:101CE00071F096E8862F70E060E02AF09A95660F12
:101CF000771F881FDAF7880F9695879597F90895CB
:101D0000990F0008550FAA0BE0E8FEEF161617060C
:101D1000E807F907C0F012161306E407F50798F074
:101D2000621B730B840B950B39F40A2661F0232B8D
:101D3000242B252B21F408950A2609F4A140A69509
:101D40008FEF811D811D08950BD078C069D028F0D8
:101D50006ED018F0952309F05AC05FC01124A2C0BC
:101D60007ED0A0F3959FD1F3950F50E0551F629F51
:101D7000F001729FBB27F00DB11D639FAA27F00DE4
:101D8000B11DAA1F649F6627B00DA11D661F829F0B
:101D90002227B00DA11D621F739FB00DA11D621FF0
:101DA000839FA00D611D221F749F3327A00D611D0D
:101DB000231F849F600D211D822F762F6A2F1124EF
:101DC0009F5750408AF0E1F088234AF0EE0FFF1F42
:101DD000BB1F661F771F881F91505040A9F79E3F79
:101DE000510570F014C05EC05F3FECF3983EDCF329
:101DF000869577956795B795F795E7959F5FC1F7B6
:101E0000FE2B880F911D9695879597F9089597F960
:101E10009F6780E870E060E008959FEF80EC089590
:101E200000240A94161617061806090608950024B9
:101E30000A9412161306140605060895092E039433
:101E4000000C11F4882352F0BB0F40F4BF2B11F4A7
:101E500060FF04C06F5F7F4F8F4F9F4F089557FD06
:101E60009058440F551F59F05F3F71F04795880F08
:101E700097FB991F61F09F3F79F08795089512169F
:101E800013061406551FF2CF4695F1DF08C016164B
:101E900017061806991FF1CF8695710561050894FC
:101EA0000895E894BB2766277727CB0197F9089513
:101EB0005058BB27AA270ED0C1CFB2DF30F0B7DF12
:101EC00020F031F49F3F11F41EF4A7CF0EF4E095FB
:101ED000E7FB9DCFE92FC3DF80F3BA1762077307D3
:101EE0008407950718F071F49EF5DBCF0EF4E095AA
:101EF0000B2EBA2FA02D0B01B90190010C01CA01C4
:101F0000A0011124FF27591B99F0593F50F4503E6E
:101F100068F11A16F040A22F232F342F4427585F60
:101F2000F3CF469537952795A795F0405395C9F778
:101F30007EF41F16BA0B620B730B840BBAF0915030
:101F4000A1F0FF0FBB1F661F771F881FC2F70EC0CF
:101F5000BA0F621F731F841F48F4879577956795A2
:101F6000B795F7959E3F08F0B3CF9395880F08F08B
:101F70009927EE0F9795879508950CD05FCF57DF7F
:101F800040F04EDF30F021F45F3F19F040CF5111A7
:101F900089CF43CF64DF98F39923C9F35523B1F375
:101FA000951B550BBB27AA2762177307840738F0C8
:101FB0009F5F5F4F220F331F441FAA1FA9F333D027
:101FC0000E2E3AF0E0E830D091505040E695001CDB
:101FD000CAF729D0FE2F27D0660F771F881FBB1F97
:101FE000261737074807AB07B0E809F0BB0B802D71
:101FF000BF01FF2793585F4F2AF09E3F510568F0BD
:1020000006CF50CF5F3FECF3983EDCF38695779593
:102010006795B795F7959F5FC9F7880F911D9695BE
:10202000879597F90895E1E0660F771F881FBB1F1A
:10203000621773078407BA0720F0621B730B840BC7
:10204000BA0BEE1F88F7E095089511DF88F09F57CF
:1020500090F0B92F9927B751A0F0D1F0660F771FF4
:10206000881F991F1AF0BA95C9F712C0B13081F0D4
:1020700018DFB1E0089515CF672F782F8827B85F54
:1020800039F0B93FCCF3869577956795B395D9F735
:102090003EF490958095709561957F4F8F4F9F4F3F
:1020A00008952EDE08F48FEF08952ADE880B990B31
:1020B0000895A1E21A2EAA1BBB1BFD010DC0AA1F89
:1020C000BB1FEE1FFF1FA217B307E407F50720F0A1
:1020D000A21BB30BE40BF50B661F771F881F991F1C
:1020E0001A9469F760957095809590959B01AC0165
:1020F000BD01CF010895EE0FFF1F881F8BBF079012
:10210000F691E02D19940F931F93CF93DF938230B4
:10211000910510F482E090E0E0912105F091220514
:1021200020E030E0A0E0B0E0309719F1408151812B
:102130000281138148175907C8F08417950769F47D
:10214000109731F012960C93129713961C9327C098
:10215000009321051093220522C02115310519F0A5
:102160004217530718F49A01BD01EF01DF01F8018E
:10217000DBCF21153105F9F0281B390B243031054F
:1021800080F48A819B816115710521F0FB019383A5
:10219000828304C09093220580932105FE0132962C
:1021A00044C0FE01E20FF31F819391932250310945
:1021B000398328833AC020911F0530912005232BB5
:1021C00041F420911502309116023093200520939E
:1021D0001F0520911302309114022115310541F49D
:1021E0002DB73EB74091170250911802241B350BB2
:1021F000E0911F05F0912005E217F307A0F42E1BD4
:102200003F0B2817390778F0AC014E5F5F4F24175A
:10221000350748F04E0F5F1F5093200540931F0570
:102220008193919302C0E0E0F0E0CF01DF91CF9184
:102230001F910F910895CF93DF93009709F481C008
:10224000FC01329713821282A0912105B0912205E0
:10225000109781F420813181820F931F20911F05F7
:10226000309120052817390751F5F0932005E093A8
:102270001F0567C0ED0120E030E0CE17DF0740F416
:102280004A815B819E0141155105F1F0EA01F5CFCC
:10229000D383C28340815181840F951FC817D9070A
:1022A00059F488819981840F951F029691838083C8
:1022B0008A819B81938382832115310529F4F093D0
:1022C0002205E09321053DC0E901FB83EA834991A2
:1022D0005991C40FD51FEC17FD0761F480819181DE
:1022E000840F951F0296E9019983888382819381E7
:1022F0009B838A83E0E0F0E012968D919C91139786
:10230000009719F0FD01DC01F7CF8D919C91119799
:102310009D012E5F3F4F820F931F20911F0530912B
:1023200020052817390769F4309729F410922205FF
:102330001092210502C013821282B0932005A0934F
:102340001F05DF91CF9108956F927F928F929F9298
:10235000AF92BF92CF92DF92EF92FF920F931F93B3
:10236000CF93DF93009781F4CB01DF91CF911F9141
:102370000F91FF90EF90DF90CF90BF90AF909F9024
:102380008F907F906F90BFCEFC01E60FF71F9C01EE
:1023900022503109E217F30708F4A5C0EC01D90176
:1023A0000D911C91119706171707A8F0053011051C
:1023B00008F497C0C80104978617970708F491C0DE
:1023C00002501109061B170B019311936D937C9317
:1023D000CF0131DF86C05B01A01AB10A4C01800E2B
:1023E000911EA0912105B0912205612C712CE12C48
:1023F000F12C109709F446C08D919C911197A81566
:10240000B905B1F56C0142E0C40ED11CCA14DB045D
:1024100078F14C018A189B08640142E0C40ED11C7B
:102420001296BC9012971396AC91B5E0CB16D104DE
:1024300040F0B282A38391828082D9016D937C9314
:1024400009C00E5F1F4F800F911FF9019183808398
:10245000EB2DFA2FE114F10431F0D7011396FC9320
:10246000EE9312973EC0F0932205E093210539C008
:102470006816790608F43C017D0112960D90BC9116
:10248000A02DB7CF80911F05909120058816990641
:10249000E1F466167706C8F4809113029091140255
:1024A000009741F48DB79EB74091170250911802E2
:1024B000841B950BE817F907B0F4F0932005E0931F
:1024C0001F05F901718360830CC0CB011CDE7C0108
:1024D000009749F0A801BE011BD0CE01ACDEC701B8
:1024E00004C0CE0102C080E090E0DF91CF911F9147
:1024F0000F91FF90EF90DF90CF90BF90AF909F90A3
:102500008F907F906F90089581E090E0F89419C0CB
:10251000FB01DC0102C001900D9241505040D8F700
:102520000895FB01DC018D91019080190110D9F310
:10253000990B0895FB01DC0101900D920020E1F759
:10254000089511E0C5E1D1E000E005C0802FFE0153
:10255000D2DD2196011DC631D10780E00807B1F711
:04256000F894FFCF1D
:1025640028292A2425262731323334353637383979
:102574002A302300002305800000000000E1014F01
:102584000179012D02AA0188019C0100000000E4E8
:10259400028B0289020000000085044F0186024775
:1025A400016E616E00696E66006F766600536D6140
:1025B400727420486F6D650020536D6172742048F9
:1025C4006F6D6520000D0A00444F4F525F4C4F431E
:1025D4004B00444F4F525F4C4F434B203A29004528
:1025E4006E74657220504153533A2000456E7465F1
:1025F4007220504153533A00436F727265637420E2
:102604005041535300436F727265637420504153B9
:1026140053203A29006C6564310067726561740067
:102624006C656432006C656433006C656434006C02
:10263400656435006C6564316F6666006C65643290
:102644006F6666006C6564336F6666006C6564343F
:102654006F6666006C6564356F66660066616E3130
:102664000066616E320066616E330066616E34002E
:1026740066616E735F6F6E0066616E316F666600D1
:1026840066616E326F66660066616E336F66660001
:1026940066616E346F66660074656D700054454DF6
:1026A400503D20002A430054454D50455241545555
:1026B4005245203D2000646F6F72316F70656E006B
:1026C400646F6F72326F70656E00646F6F72336F18
:1026D40070656E00646F6F7231636C6F7365006454
:1026E4006F6F7232636C6F736500646F6F72336304
:1026F4006C6F73650077726F6E672063686F6963D0
:102704006500466972652021212046697265202191
:10271400210057656C636F6D6520486F6D652028D7
:102724003A20200057726F6E672050415353005770
:10273400726F6E672050415353203A280031323370
:0227440034005F
:020000023000CC
:10E000000D9489F10D94B2F10D94B2F10D94B2F129
:10E010000D94B2F10D94B2F10D94B2F10D94B2F1F0
:10E020000D94B2F10D94B2F10D94B2F10D94B2F1E0
:10E030000D94B2F10D94B2F10D94B2F10D94B2F1D0
:10E040000D94B2F10D94B2F10D94B2F10D94B2F1C0
:10E050000D94B2F10D94B2F10D94B2F10D94B2F1B0
:10E060000D94B2F10D94B2F10D94B2F10D94B2F1A0
:10E070000D94B2F10D94B2F10D94B2F10D94B2F190
:10E080000D94B2F10D94B2F10D94B2F10D94B2F180
:10E090000D94B2F10D94B2F10D94B2F10D94B2F170
:10E0A0000D94B2F10D94B2F10D94B2F10D94B2F160
:10E0B0000D94B2F10D94B2F10D94B2F10D94B2F150
:10E0C0000D94B2F10D94B2F10D94B2F10D94B2F140
:10E0D0000D94B2F10D94B2F10D94B2F10D94B2F130
:10E0E0000D94B2F141546D656761323536300041AF
:10E0F000726475696E6F206578706C6F72657220DE
:10E1000073746B3530305632206279204D4C530099
:10E11000426F6F746C6F616465723E004875683F52
:10E1200000436F6D70696C6564206F6E203D200048
:10E130004350552054797065202020203D20005FF9
:10E140005F4156525F415243485F5F3D2000415658
:10E1500052204C696243205665723D20004743437C
:10E160002056657273696F6E203D20004350552024
:10E1700049442020202020203D20004C6F7720663D
:10E18000757365202020203D20004869676820665F
:10E190007573652020203D200045787420667573D6
:10E1A00065202020203D20004C6F636B2066757336
:10E1B000652020203D20004D617220203720323024
:10E1C000313300312E362E3800342E332E350056A2
:10E1D00023202020414444522020206F7020636F70
:10E1E00064652020202020696E73747275637469E1
:10E1F0006F6E2061646472202020496E74657272B3
:10E20000757074006E6F20766563746F7200726A49
:10E210006D702020006A6D70200057686174207056
:10E220006F72743A00506F7274206E6F7420737541
:10E2300070706F72746564004D7573742062652030
:10E2400061206C6574746572002000577269747483
:10E25000696E672045450052656164696E672045B7
:10E26000450045452065727220636E743D00504F35
:10E27000525400303D5A65726F2061646472003FF1
:10E280003D43505520737461747300403D454550C3
:10E29000524F4D207465737400423D426C696E6B41
:10E2A000204C454400453D44756D70204545505215
:10E2B0004F4D00463D44756D7020464C415348001B
:10E2C000483D48656C70004C3D4C69737420492F83
:10E2D0004F20506F72747300513D51756974005234
:10E2E0003D44756D702052414D00563D73686F7707
:10E2F00020696E7465727275707420566563746FF0
:10E30000727300593D506F727420626C696E6B00BD
:10E310002A0011241FBECFEFD1E2DEBFCDBF01E046
:10E320000CBF12E0A0E0B2E0EEE1FDEF03E00BBFB6
:10E3300002C007900D92A030B107D9F712E0A0E01B
:10E34000B2E001C01D92AE30B107E1F70F9460F367
:10E350000D948DFE01E20EBF0FEF0DBF11241FBE05
:10E360000D9460F30D9400F020E030E040ED57E0B4
:10E3700005C0FA013197F1F72F5F3F4F2817390792
:10E38000C0F308959C01260F311DC901A0E0B0E043
:10E390002F5F3F4FABBFFC018791882361F08093D3
:10E3A000C6008091C00086FFFCCF8091C0008064D1
:10E3B0008093C000EACF08958DE08093C6008091DD
:10E3C000C00086FFFCCF8091C00080648093C000B5
:10E3D0008AE08093C6008091C00086FFFCCF8091C8
:10E3E000C00080648093C00008950F94C2F10F9420
:10E3F000DCF10895FC019081992359F09093C600B7
:10E400008091C00086FFFCCF8091C0008064809323
:10E41000C0003196992379F70895282F982F929567
:10E420009F70892F805D8A3308F0895F8093C600D2
:10E430008091C00086FFFCCF8091C00080648093F3
:10E44000C000822F8F70982F905D9A3308F0995FEB
:10E450009093C6008091C00086FFFCCF8091C000E1
:10E4600080648093C00008959C01FB01853691056E
:10E470001CF46330710594F0C90164E670E00F94F8
:10E480002EFE605D7F4F6093C6008091C00086FFC6
:10E49000FCCF8091C00080648093C0002B30310598
:10E4A00014F43297B4F0C90164E670E00F942EFEC4
:10E4B0006AE070E00F942EFE605D7F4F6093C600AF
:10E4C0008091C00086FFFCCF8091C0008064809363
:10E4D000C000C9016AE070E00F942EFEC0968093E0
:10E4E000C6008091C00086FFFCCF8091C000806490
:10E4F0008093C00008951F93182F8EE692EE60E07F
:10E500000F94C2F11093C6008091C00086FFFCCF2B
:10E510008091C00080648093C0000F94DCF11F9153
:10E5200008952F923F924F925F926F927F928F92B7
:10E530009F92AF92BF92CF92DF92EF92FF920F9392
:10E540001F93DF93CF93CDB7DEB762970FB6F894E2
:10E55000DEBF0FBECDBF382E622ECA01DB015C01CB
:10E560006D01772420E2222E2E010894411C511CBB
:10E570008BC081E0A81680E0B80681E0C80680E084
:10E58000D80628F0C601AA27BB270F940DF2BB2797
:10E59000AD2D9C2D8B2D0F940DF28A2D0F940DF225
:10E5A0002092C6008091C00086FFFCCF8091C00001
:10E5B00080648093C0009DE29093C6008091C0006B
:10E5C00086FFFCCF8091C00080648093C0002092C1
:10E5D000C6008091C00086FFFCCF8091C00080649F
:10E5E0008093C00019828601750188249924A1E0D6
:10E5F0003A1651F03A1620F0B2E03B1661F409C029
:10E600000BBFF701779007C0C7010F9477FE782EF4
:10E6100002C0F7017080872D0F940DF22092C60082
:10E620008091C00086FFFCCF8091C0008064809301
:10E63000C000872D8052F401EF70F0708F3520F408
:10E64000E40DF51D708204C0E40DF51D8EE280839B
:10E650000894E11CF11C011D111D0894811C911CE2
:10E6600090E18916910409F0C2CF80E190E0A0E02A
:10E67000B0E0A80EB91ECA1EDB1E198AC2010F9493
:10E68000FAF10F94DCF16A94662009F072CF629679
:10E690000FB6F894DEBF0FBECDBFCF91DF911F91B3
:10E6A0000F91FF90EF90DF90CF90BF90AF909F9031
:10E6B0008F907F906F905F904F903F902F90089534
:10E6C0002F923F924F925F926F927F928F929F9282
:10E6D000AF92BF92CF92DF92EF92FF920F931F9370
:10E6E000DF93CF93CDB7DEB7CD53D1400FB6F894BB
:10E6F000DEBF0FBECDBF01E20EBF0FEF0DBF94B75F
:10E70000F894A89514BE80916000886180936000A1
:10E7100010926000789493FF05C0E0910002F091A0
:10E7200001021995279A2F9A8091C00082608093E8
:10E73000C00080E18093C40088E18093C1000000A4
:10E74000EE24FF24870144E0A42EB12CCC24DD2448
:10E7500024C0C5010197F1F70894E11CF11C011DCB
:10E76000111D21E2E2162EE4F20620E0020720E06D
:10E77000120718F031E0C32ED12CC801B70127ECE5
:10E780003BE140E050E00F9441FE611571058105C9
:10E79000910519F485B1805885B98091C00087FD35
:10E7A00003C0C114D104A9F2A6014F5F5F4FC25E3E
:10E7B000DE4F59834883CE51D140C25EDE4F8881FF
:10E7C0009981CE51D140019711F00D9410FEC05D9A
:10E7D000DE4F19821882C053D14060E0C15DDE4F28
:10E7E0001882CF52D14088249924C35DDE4F19820C
:10E7F0001882CD52D140C05EDE4F188219821A8233
:10E800001B82C052D140CE5CDE4F188219821A8220
:10E810001B82C253D140EE24FF2487010BBFF701B6
:10E8200007911691C45CDE4F19830883CC53D14005
:10E830000D940BFEC25EDE4F28813981CE51D1404E
:10E840002130310509F52091C600C25EDE4F1982E4
:10E850001882CE51D14022C02F5F3F4F4F4F5F4FA4
:10E86000213082E138078AE7480780E0580780F0C6
:10E87000C45CDE4FE881F981CC53D140EF5FFF4F9C
:10E8800019F0EE27FF27099420E030E040E050E047
:10E890008091C00087FFE0CF2091C600C35DDE4FAE
:10E8A00048815981CD52D1404F5F5F4FC35DDE4FEC
:10E8B00059834883CD52D140213209F063C64A3092
:10E8C000510508F05FC60894811C911C53E0851621
:10E8D000910409F059C600E010E018C081E280936D
:10E8E000C6008091C00086FFFCCF8091C00080648C
:10E8F0008093C0002F5F3F4F2931310579F70F9486
:10E90000DCF10F5F1F4F0530110519F020E030E0FA
:10E91000E5CF10920A0210920B0210920C02109294
:10E920000D02109206021092070210920802109235
:10E930000902109202021092030210920402109235
:10E9400005028FEE90EE60E00F94F5F180E191EE1C
:10E9500060E00F94C2F18091C00087FFFCCF9091DE
:10E96000C600903608F09F759032B8F09093C600BC
:10E970008091C00086FFFCCF8091C00080648093AE
:10E98000C000A0E2A093C6008091C00086FFFCCF2B
:10E990008091C00080648093C000983409F4D7C18E
:10E9A0009934B8F4923409F459C1933458F490333B
:10E9B00019F1903308F4E3C59F33A1F1903409F0C5
:10E9C000DEC5BDC0953409F470C1963409F0D7C5D1
:10E9D00098C1923509F42BC2933538F49C3409F46C
:10E9E000F5C1913509F0CBC518C2963509F445C279
:10E9F000993509F0C4C567C483E792EE62E00F94CD
:10EA0000F5F110920602109207021092080210927D
:10EA1000090210920A0210920B0210920C0210923C
:10EA20000D0213C18FE792EE62E00F94F5F18FEEC5
:10EA300090EE60E00F94F5F181E291EE60E00F94CA
:10EA4000C2F187EB91EE60E00F94F5F180E391EE77
:10EA500060E00F94C2F184EE90EE60E00F94F5F167
:10EA60008FE391EE60E00F94C2F186E090E061E008
:10EA700070E00F9434F20F94DCF18DE591EE60E0DC
:10EA80000F94C2F189EC91EE60E00F94F5F18EE401
:10EA900091EE60E00F94C2F183EC91EE60E00F9490
:10EAA000F5F18CE691EE60E00F94C2F18EE10F94E7
:10EAB0000DF288E90F940DF281E00F940DF20F949E
:10EAC000DCF18BE791EE60E00F94C2F119E0E0E039
:10EAD000F0E010935700E4918E2F0F940DF20F94F5
:10EAE000DCF18AE891EE60E00F94C2F1E3E0F0E03F
:10EAF00010935700E4918E2F0F940DF20F94DCF1D8
:10EB000089E991EE60E00F94C2F1E2E0F0E0109349
:10EB10005700E4918E2F0F940DF20F94DCF188EAE8
:10EB200091EE60E00F94C2F1E1E0F0E01093570045
:10EB30001491812F0F940DF20F94DCF107CF8BE825
:10EB400092EE62E00F94F5F18BE492EE60E00F94A8
:10EB5000F5F10F94DCF100E010E019C0C8016F2D51
:10EB60000F947FFEFF2031F489E492EE60E00F9471
:10EB7000C2F10BC0F092C6008091C00086FFFCCFAE
:10EB80008091C00080648093C0000F5F1F4FC80158
:10EB900081519F41A0E0B0E0ABBFFC01F790BAE229
:10EBA000FB1621F0E2E000301E07C1F60F94DCF105
:10EBB0000F94DCF187E592EE60E00F94F5F10F948D
:10EBC000DCF1CC24DD2400E010E01EC0C8010F946D
:10EBD00077FEF82E882331F489E492EE60E00F94FA
:10EBE000C2F10BC08093C6008091C00086FFFCCFAD
:10EBF0008091C00080648093C000FE1419F00894D6
:10EC0000C11CD11C0F5F1F4FC80181519F41A0E063
:10EC1000B0E0ABBFFC01E790FAE2EF1621F022E092
:10EC20000030120799F60F94DCF10F94DCF182E6C4
:10EC300092EE60E00F94C2F1C60161E070E00F94C3
:10EC400034F20F94DCF10F94DCF110920202109276
:10EC50000302109204021092050278CE89E992EE26
:10EC600062E00F94F5F1279A2F9A16C02F9880E052
:10EC700090E0E0EDF7E03197F1F7019684369105E9
:10EC8000C1F72F9A80E090E0E0EDF7E03197F1F7DF
:10EC9000019684369105C1F78091C00087FFE6CFC9
:10ECA0008091C00087FFFCCF64C485EA92EE62E0E9
:10ECB0000F94F5F140910202509103026091040219
:10ECC0007091050281E020E10F9491F2809102029F
:10ECD00090910302A0910402B091050280509F4FD1
:10ECE000AF4FBF4F8093020290930302A0930402A0
:10ECF000B093050280509041A040B04008F426CE69
:10ED0000A4CF83EB92EE62E00F94F5F140910602FE
:10ED100050910702609108027091090280E020E1A1
:10ED20000F9491F28091060290910702A09108023F
:10ED3000B091090280509F4FAF4FBF4F80930602A2
:10ED400090930702A0930802B0930902FFCD80ECD4
:10ED500092EE62E00F94F5F183E792EE60E00F949B
:10ED6000F5F18FE792EE60E00F94F5F18BE892EE0B
:10ED700060E00F94F5F189E992EE60E00F94F5F10F
:10ED800085EA92EE60E00F94F5F183EB92EE60E09D
:10ED90000F94F5F180EC92EE60E00F94F5F187ECC2
:10EDA00092EE60E00F94F5F188ED92EE60E00F9442
:10EDB000F5F18FED92EE60E00F94F5F18AEE92EEB0
:10EDC00060E00F94F5F183E093EEBDCD87EC92EE19
:10EDD00062E00F94F5F181E40F947BF282E40F94EA
:10EDE0007BF283E40F947BF284E40F947BF285E45E
:10EDF0000F947BF286E40F947BF287E40F947BF20E
:10EE000088E40F947BF28AE40F947BF28BE40F94F6
:10EE10007BF28CE40F947BF299CD88ED92EE62E068
:10EE20000F94F5F1772473948824992409C48FED05
:10EE300092EE62E00F94F5F140910A0250910B02BC
:10EE400060910C0270910D0282E020E10F9491F22A
:10EE500080910A0290910B02A0910C02B0910D02D8
:10EE600080509F4FAF4FBF4F80930A0290930B0289
:10EE7000A0930C02B0930D0269CD8AEE92EE62E08F
:10EE80000F94F5F184EE90EE60E00F94F5F18FECC5
:10EE900091EE60E00F94F5F1662477244301CC5D98
:10EEA000DE4F19821882C452D140D401C301B695F5
:10EEB000A79597958795CA5DDE4F88839983AA8326
:10EEC000BB83C652D140CC5DDE4FA881B981C4520C
:10EED000D1401196CC5DDE4FB983A883C452D14096
:10EEE000CD0162E070E00F9434F2B0E2B093C6005E
:10EEF0008091C00086FFFCCF8091C0008064809329
:10EF0000C000EDE2E093C6008091C00086FFFCCF18
:10EF10008091C00080648093C000F0E2F093C6004E
:10EF20008091C00086FFFCCF8091C00080648093F8
:10EF3000C000CA5DDE4FE880F9800A811B81C6529D
:10EF4000D140BB27A12F902F8F2D0F940DF2CA5DBA
:10EF5000DE4F8881C652D1400F940DF2B0E2FB2EF5
:10EF6000F092C6008091C00086FFFCCF8091C00067
:10EF700080648093C0000DE30093C6008091C000C0
:10EF800086FFFCCF8091C00080648093C00010E2B7
:10EF90001093C6008091C00086FFFCCF8091C00016
:10EFA00080648093C0008BBEF3012791C65DDE4F65
:10EFB0002883CA52D140A22EBB24CC24DD2408943D
:10EFC000611C711C811C911C8BBEF3018791282E42
:10EFD0003324442455240894611C711C811C911C09
:10EFE0008BBEF3013791C55DDE4F3883CB52D140E4
:10EFF0000894611C711C811C911C8BBEF30147910C
:10F00000C45DDE4F4883CC52D140ADEFEA2EAFEF66
:10F01000FA2EAFEF0A2FAFEF1A2F6E0C7F1C801E57
:10F02000911E142D032DF22CEE24EA0CFB1C0C1D5A
:10F030001D1D0F940DF220E22093C6008091C000A8
:10F0400086FFFCCF8091C00080648093C000C65DC5
:10F05000DE4F8881CA52D1400F940DF230E23093D6
:10F06000C6008091C00086FFFCCF8091C000806404
:10F070008093C000C45DDE4F8881CC52D1400F9494
:10F080000DF240E24093C6008091C00086FFFCCFA5
:10F090008091C00080648093C000C55DDE4F888190
:10F0A000CB52D1400F940DF250E25093C6008091A4
:10F0B000C00086FFFCCF8091C00080648093C000B8
:10F0C0008FEFE8168FEFF80680E0080780E018075A
:10F0D00031F484E092EE60E00F94C2F1DFC0D80119
:10F0E000C7018070907CA070B0708050904CA040A0
:10F0F000B040D1F52FEF3FE340E050E0E222F322B1
:10F1000004231523CA5DDE4FA880B980CA80DB8046
:10F11000C652D140AE0CBF1CC01ED11EAA0CBB1CD7
:10F12000CC1CDD1C8EE092EE60E00F94C2F1BB2798
:10F13000A12F902F8F2D0F940DF28E2D0F940DF285
:10F1400030E23093C6008091C00086FFFCCF8091F2
:10F15000C00080648093C0004EE34093C60080915D
:10F16000C00086FFFCCF87C08EE09EEFA0E0B0E03D
:10F17000E822F9220A231B239CE0E91694E9F90608
:10F1800090E0090790E0190709F088C0C45DDE4FE0
:10F19000A881CC52D140EA2EFF2400E010E0102FCD
:10F1A0000F2DFE2CEE24C55DDE4FB881CB52D14031
:10F1B000EB0EF11C011D111DD601C501817090706F
:10F1C000A070B070DC0199278827E80EF91E0A1F8D
:10F1D0001B1F20EF30E040E050E0A222B322C42207
:10F1E000D52241E1AA0CBB1CCC1CDD1C4A95D1F7F1
:10F1F000EA0CFB1C0C1D1D1D81E090E0A0E0B0E0BE
:10F20000282239224A225B2235E1220C331C441C7D
:10F21000551C3A95D1F7E20CF31C041D151D57013E
:10F220006801AA0CBB1CCC1CDD1C85E192EE60E0E1
:10F230000F94C2F1C801AA27BB270F940DF2BB2778
:10F24000A12F902F8F2D0F940DF28E2D0F940DF274
:10F2500090E29093C6008091C00086FFFCCF809121
:10F26000C00080648093C000AEE3A093C60080918C
:10F27000C00086FFFCCF8091C00080648093C000F6
:10F28000C601AA27BB270F940DF2BB27AD2D9C2DDD
:10F290008B2D0F940DF28A2D0F940DF20F94DCF14B
:10F2A000CC5DDE4FE881F981C452D140F99709F471
:10F2B0004DCBF4E0EF2EF12C012D112D6E0C7F1CA7
:10F2C000801E911EF2CD83E093EE62E00F94F5F183
:10F2D0008AE192EE60E00F94C2F18091C00087FF56
:10F2E000FCCF1091C6001F751093C6008091C0001E
:10F2F00086FFFCCF8091C00080648093C0000F9493
:10F30000DCF1812F81548A3108F036C1163409F4BA
:10F3100095C0173490F4133409F44EC0143430F40B
:10F320001134F1F0123409F01DC130C0143409F465
:10F3300059C0153409F016C16BC01A3409F4C4C0A1
:10F340001B3438F4173409F48FC0183409F00AC19B
:10F35000A1C01B3409F4D2C01C3409F003C1E8C0B9
:10F360008FEF81B90DC082B1809582B980E090E0C5
:10F37000E0EDF7E03197F1F70196883C9105C1F790
:10F380008091C00087FFEFCF12B8EFC08FEF84B934
:10F390000DC085B1809585B980E090E0E0EDF7E0A3
:10F3A0003197F1F70196883C9105C1F78091C00033
:10F3B00087FFEFCF15B8D9C08FEF87B90DC088B1DF
:10F3C000809588B980E090E0E0EDF7E03197F1F7C3
:10F3D0000196883C9105C1F78091C00087FFEFCF6F
:10F3E00018B8C3C08FEF8AB90DC08BB180958BB9A7
:10F3F00080E090E0E0EDF7E03197F1F70196883C8E
:10F400009105C1F78091C00087FFEFCF1BB8ADC059
:10F410008FEF8DB90DC08EB180958EB980E090E0F0
:10F42000E0EDF7E03197F1F70196883C9105C1F7DF
:10F430008091C00087FFEFCF1EB897C08FEF80BBD1
:10F440000DC081B3809581BB80E090E0E0EDF7E0F6
:10F450003197F1F70196883C9105C1F78091C00082
:10F4600087FFEFCF11BA81C08FEF83BB0DC084B38C
:10F47000809584BB80E090E0E0EDF7E03197F1F714
:10F480000196883C9105C1F78091C00087FFEFCFBE
:10F4900014BA6BC08FEF809301010FC080910201FD
:10F4A00080958093020180E090E0E0EDF7E03197F5
:10F4B000F1F70196883C9105C1F78091C00087FF64
:10F4C000EDCF1092020151C08FEF809304010FC065
:10F4D0008091050180958093050180E090E0E0ED4A
:10F4E000F7E03197F1F70196883C9105C1F78091DB
:10F4F000C00087FFEDCF1092050137C08FEF8093DA
:10F5000007010FC08091080180958093080180E079
:10F5100090E0E0EDF7E03197F1F70196883C910536
:10F52000C1F78091C00087FFEDCF109208011DC088
:10F530008FEF80930A010FC080910B01809580931B
:10F540000B0180E090E0E0EDF7E03197F1F70196F4
:10F55000883C9105C1F78091C00087FFEDCF1092E4
:10F560000B0103C085E292EEEEC98091C00087FFD7
:10F57000FCCF8091C600EAC988E392EEE4C98CE131
:10F5800091EEE1C988249924933011F1943028F444
:10F59000913089F09230B8F408C0953061F195301F
:10F5A000F0F0963009F048C043C02B3109F042C951
:10F5B00091E06BE13FC96227C15DDE4F2883CF52E6
:10F5C000D14092E037C9B22FA0E0622793E032C960
:10F5D000822F90E0A82BB92B622794E02BC92E3004
:10F5E00009F039C3622795E0C05DDE4F19821882A9
:10F5F000C053D1401FC9E1E0F0E0EC0FFD1FC05D3A
:10F60000DE4F08811981C053D140E00FF11F2083E4
:10F610000F5F1F4FC05DDE4F19830883C053D14079
:10F6200062270A171B0709F005C9D80196E002C92D
:10F63000261709F010C303C0973009F0FBC87724E0
:10F640009981933109F412C19431C8F4963009F4C8
:10F65000D8C0973050F4923009F406C1933009F4C1
:10F660006DC0913009F059C253C0913109F477C08F
:10F67000923108F0BBC0903109F04FC2F5C098310B
:10F6800009F487C0993150F4953109F4EFC09531F0
:10F6900008F4C6C1963109F040C2C2C19A3109F4DA
:10F6A0006CC09A3108F491C09B3109F45BC09D3164
:10F6B00009F033C29D81903359F48F81882311F46E
:10F6C0009EE11CC0813011F091E018C098E916C08D
:10F6D000892F807591F0903539F4E0E0F0E089E011
:10F6E0008093570094910AC0983539F4E3E0F0E034
:10F6F00089E080935700949101C090E01A821B82A8
:10F700008D818C831D829E831F8227E030E009C299
:10F710001A8288E08B8381E48C8386E58D8382E581
:10F720008E8389E48F8383E5888780E589878FE5E9
:10F730008A8782E38B872BE030E0F3C18A818139AD
:10F7400041F0823941F0803911F48FE005C080E04A
:10F7500003C082E001C08AE01A828B8344C0772410
:10F76000739482C08D81882311F48EE12CC0813086
:10F7700011F081E028C088E926C01A82E1E0F0E0BB
:10F7800089E08093570084918B831C8224E030E0D1
:10F79000C8C18B81803589F48C81883039F4E2E0EE
:10F7A000F0E089E08093570084910DC0E0E0F0E044
:10F7B00089E080935700849106C0E3E0F0E089E09F
:10F7C0008093570084911A82DFCF8D81836C99E0FA
:10F7D000E1E0F0E0082E90935700E89507B600FCB2
:10F7E000FDCF1A821B8223E030E09BC180EC8A832C
:10F7F000CE5CDE4F188219821A821B82C253D1401E
:10F800008EC18A8190E0A0E0B0E0582F44273327D2
:10F8100022278B8190E0A0E0B0E0DC0199278827C7
:10F82000282B392B4A2B5B2B8D8190E0A0E0B0E098
:10F83000282B392B4A2B5B2B8C8190E0A0E0B0E089
:10F84000BA2FA92F982F8827282B392B4A2B5B2BCF
:10F85000220F331F441F551FC05EDE4F288339839C
:10F860004A835B83C052D1401A8259C13A81C95C34
:10F87000DE4F3883C753D140CA5CDE4F1882C6536F
:10F88000D1408B81C82EDD24CA5CDE4F488159816E
:10F89000C653D140C42AD52A933109F082C0CE5C28
:10F8A000DE4F88819981AA81BB81C253D1408050AB
:10F8B000904CA340B04030F583E0CE5CDE4FE88052
:10F8C000F9800A811B81C253D140F70100935B008C
:10F8D00080935700E89507B600FCFDCFCE5CDE4F65
:10F8E000088119812A813B81C253D14000501F4FAA
:10F8F0002F4F3F4FCE5CDE4F088319832A833B8313
:10F90000C253D140C05EDE4F488159816A817B81FC
:10F91000C052D140DE011B9631E08C9111962C91A2
:10F9200011971296C75CDE4F2883C953D140C85C3B
:10F93000DE4F1882C853D14090E0C85CDE4FE881AA
:10F94000F981C853D1408E2B9F2B0C01FA01609393
:10F950005B0030935700E89511244E5F5F4F6F4F67
:10F960007F4F0EEFE02E0FEFF02ECE0CDF1CC114F8
:10F97000D10499F685E0C05EDE4F088119812A81A5
:10F980003B81C052D140F80120935B008093570027
:10F99000E89507B600FCFDCF81E180935700E8951C
:10F9A00035C0C05EDE4F88819981AA81BB81C0527B
:10F9B000D140B695A795979587957C018601ABE0D8
:10F9C000AA2EB12CAC0EBD1E0BC0D5016D915D01F0
:10F9D000C7010F947FFE0894E11CF11C01501040F8
:10F9E0000115110591F7A60160E070E0440F551F65
:10F9F000661F771FC05EDE4FE880F9800A811B8199
:10FA0000C052D1404E0D5F1D601F711F1A82C05E33
:10FA1000DE4F488359836A837B83C052D1407FC0C5
:10FA2000FA80C55CDE4FF882CB53D140C65CDE4F16
:10FA30001882CA53D1408B81C82EDD24C65CDE4FAC
:10FA400008811981CA53D140C02AD12A1A828981DA
:10FA5000BE016D5F7F4F843121F59601C05EDE4FA0
:10FA6000E880F9800A811B81C052D1400BBFF701A9
:10FA700087919691DB018C9311969C936E5F7F4FDB
:10FA8000D801C7010296A11DB11DC05EDE4F88835B
:10FA90009983AA83BB83C052D14022503040F1F6F3
:10FAA00036C0C05EDE4F288139814A815B81C052F9
:10FAB000D1400894C108D108760100E010E0089414
:10FAC000C11CD11C0894E11CF11C011D111DE20E8A
:10FAD000F31E041F151F21BDBB27A52F942F832FB5
:10FAE00082BD2F5F3F4F4F4F5F4FF89A80B5DB01CC
:10FAF0008D93BD012E153F054007510761F7C05E8C
:10FB0000DE4F288339834A835B83C052D1409601FC
:10FB10002D5F3F4FFB01108204C080EC8A8322E0FE
:10FB200030E08BE18093C6008091C00086FFFCCF5F
:10FB30008091C00080648093C000C15DDE4FF88179
:10FB4000CF52D140F093C6008091C00086FFFCCF19
:10FB50008091C00080648093C000432F3093C60022
:10FB60008091C00086FFFCCF8091C00080648093AC
:10FB7000C000922F2093C6008091C00086FFFCCF6A
:10FB80008091C00080648093C0008EE08093C600A6
:10FB90008091C00086FFFCCF8091C000806480937C
:10FBA000C00065E1C15DDE4FE880CF52D1406E25D7
:10FBB00069276427FE01319610C090819093C6009A
:10FBC0008091C00086FFFCCF31968091C000806498
:10FBD0008093C0006927215030402115310569F715
:10FBE0006093C6008091C00086FFFCCF8091C0006A
:10FBF00080648093C00085B1805885B9772081F4F6
:10FC0000C15DDE4F0881CF52D1400F5FC15DDE4F35
:10FC10000883CF52D14090E0A0E0B0E00D941AF4F8
:10FC200027982F9880E090E020ED37E0F901319798
:10FC3000F1F7019684369105C9F700008091C00064
:10FC40008D7F8093C00081E180935700E895EE2777
:10FC5000FF270994FFCF90E00D941AF497FB092E2B
:10FC600007260AD077FD04D02ED006D000201AF443
:10FC7000709561957F4F0895F6F7909581959F4F08
:10FC80000895A1E21A2EAA1BBB1BFD010DC0AA1FDD
:10FC9000BB1FEE1FFF1FA217B307E407F50720F0F5
:10FCA000A21BB30BE40BF50B661F771F881F991F70
:10FCB0001A9469F760957095809590959B01AC01B9
:10FCC000BD01CF010895AA1BBB1B51E107C0AA1FAC
:10FCD000BB1FA617B70710F0A61BB70B881F991FED
:10FCE0005A95A9F780959095BC01CD010895F99991
:10FCF000FECF92BD81BDF89A992780B50895262F31
:10FD0000F999FECF1FBA92BD81BD20BD0FB6F89400
:0EFD1000FA9AF99A0FBE01960895F894FFCF63
:040000033000E000E9
:00000001FF
